{
  "contractName": "CarboneumCrowdsale",
  "abi": [
    {
      "constant": true,
      "inputs": [],
      "name": "hasClosed",
      "outputs": [
        {
          "name": "",
          "type": "bool"
        }
      ],
      "payable": false,
      "stateMutability": "view",
      "type": "function"
    },
    {
      "constant": true,
      "inputs": [],
      "name": "rate",
      "outputs": [
        {
          "name": "",
          "type": "uint256"
        }
      ],
      "payable": false,
      "stateMutability": "view",
      "type": "function"
    },
    {
      "constant": true,
      "inputs": [],
      "name": "cap",
      "outputs": [
        {
          "name": "",
          "type": "uint256"
        }
      ],
      "payable": false,
      "stateMutability": "view",
      "type": "function"
    },
    {
      "constant": true,
      "inputs": [],
      "name": "weiRaised",
      "outputs": [
        {
          "name": "",
          "type": "uint256"
        }
      ],
      "payable": false,
      "stateMutability": "view",
      "type": "function"
    },
    {
      "constant": true,
      "inputs": [
        {
          "name": "",
          "type": "address"
        }
      ],
      "name": "contributions",
      "outputs": [
        {
          "name": "",
          "type": "uint256"
        }
      ],
      "payable": false,
      "stateMutability": "view",
      "type": "function"
    },
    {
      "constant": true,
      "inputs": [],
      "name": "closingTime",
      "outputs": [
        {
          "name": "",
          "type": "uint256"
        }
      ],
      "payable": false,
      "stateMutability": "view",
      "type": "function"
    },
    {
      "constant": true,
      "inputs": [],
      "name": "capReached",
      "outputs": [
        {
          "name": "",
          "type": "bool"
        }
      ],
      "payable": false,
      "stateMutability": "view",
      "type": "function"
    },
    {
      "constant": true,
      "inputs": [],
      "name": "wallet",
      "outputs": [
        {
          "name": "",
          "type": "address"
        }
      ],
      "payable": false,
      "stateMutability": "view",
      "type": "function"
    },
    {
      "constant": true,
      "inputs": [
        {
          "name": "",
          "type": "address"
        }
      ],
      "name": "caps",
      "outputs": [
        {
          "name": "",
          "type": "uint256"
        }
      ],
      "payable": false,
      "stateMutability": "view",
      "type": "function"
    },
    {
      "constant": true,
      "inputs": [
        {
          "name": "_beneficiary",
          "type": "address"
        }
      ],
      "name": "getUserCap",
      "outputs": [
        {
          "name": "",
          "type": "uint256"
        }
      ],
      "payable": false,
      "stateMutability": "view",
      "type": "function"
    },
    {
      "constant": true,
      "inputs": [],
      "name": "owner",
      "outputs": [
        {
          "name": "",
          "type": "address"
        }
      ],
      "payable": false,
      "stateMutability": "view",
      "type": "function"
    },
    {
      "constant": true,
      "inputs": [],
      "name": "pre_sale_end",
      "outputs": [
        {
          "name": "",
          "type": "uint256"
        }
      ],
      "payable": false,
      "stateMutability": "view",
      "type": "function"
    },
    {
      "constant": false,
      "inputs": [
        {
          "name": "_beneficiaries",
          "type": "address[]"
        },
        {
          "name": "_cap",
          "type": "uint256"
        }
      ],
      "name": "setGroupCap",
      "outputs": [],
      "payable": false,
      "stateMutability": "nonpayable",
      "type": "function"
    },
    {
      "constant": true,
      "inputs": [],
      "name": "openingTime",
      "outputs": [
        {
          "name": "",
          "type": "uint256"
        }
      ],
      "payable": false,
      "stateMutability": "view",
      "type": "function"
    },
    {
      "constant": true,
      "inputs": [
        {
          "name": "_beneficiary",
          "type": "address"
        }
      ],
      "name": "getUserContribution",
      "outputs": [
        {
          "name": "",
          "type": "uint256"
        }
      ],
      "payable": false,
      "stateMutability": "view",
      "type": "function"
    },
    {
      "constant": true,
      "inputs": [],
      "name": "remainingTokens",
      "outputs": [
        {
          "name": "",
          "type": "uint256"
        }
      ],
      "payable": false,
      "stateMutability": "view",
      "type": "function"
    },
    {
      "constant": true,
      "inputs": [],
      "name": "tokenWallet",
      "outputs": [
        {
          "name": "",
          "type": "address"
        }
      ],
      "payable": false,
      "stateMutability": "view",
      "type": "function"
    },
    {
      "constant": false,
      "inputs": [
        {
          "name": "_beneficiary",
          "type": "address"
        },
        {
          "name": "_cap",
          "type": "uint256"
        }
      ],
      "name": "setUserCap",
      "outputs": [],
      "payable": false,
      "stateMutability": "nonpayable",
      "type": "function"
    },
    {
      "constant": false,
      "inputs": [
        {
          "name": "_beneficiary",
          "type": "address"
        }
      ],
      "name": "buyTokens",
      "outputs": [],
      "payable": true,
      "stateMutability": "payable",
      "type": "function"
    },
    {
      "constant": false,
      "inputs": [
        {
          "name": "newOwner",
          "type": "address"
        }
      ],
      "name": "transferOwnership",
      "outputs": [],
      "payable": false,
      "stateMutability": "nonpayable",
      "type": "function"
    },
    {
      "constant": true,
      "inputs": [],
      "name": "token",
      "outputs": [
        {
          "name": "",
          "type": "address"
        }
      ],
      "payable": false,
      "stateMutability": "view",
      "type": "function"
    },
    {
      "inputs": [
        {
          "name": "_openingTime",
          "type": "uint256"
        },
        {
          "name": "_closingTime",
          "type": "uint256"
        },
        {
          "name": "_rate",
          "type": "uint256"
        },
        {
          "name": "_token_wallet",
          "type": "address"
        },
        {
          "name": "_fund_wallet",
          "type": "address"
        },
        {
          "name": "_cap",
          "type": "uint256"
        },
        {
          "name": "_token",
          "type": "address"
        },
        {
          "name": "_pre_sale_end",
          "type": "uint256"
        }
      ],
      "payable": false,
      "stateMutability": "nonpayable",
      "type": "constructor"
    },
    {
      "payable": true,
      "stateMutability": "payable",
      "type": "fallback"
    },
    {
      "anonymous": false,
      "inputs": [
        {
          "indexed": true,
          "name": "previousOwner",
          "type": "address"
        },
        {
          "indexed": true,
          "name": "newOwner",
          "type": "address"
        }
      ],
      "name": "OwnershipTransferred",
      "type": "event"
    },
    {
      "anonymous": false,
      "inputs": [
        {
          "indexed": true,
          "name": "purchaser",
          "type": "address"
        },
        {
          "indexed": true,
          "name": "beneficiary",
          "type": "address"
        },
        {
          "indexed": false,
          "name": "value",
          "type": "uint256"
        },
        {
          "indexed": false,
          "name": "amount",
          "type": "uint256"
        }
      ],
      "name": "TokenPurchase",
      "type": "event"
    }
  ],
  "bytecode": "0x6060604052341561000f57600080fd5b604051610100806113cf833981016040528080519060200190919080519060200190919080519060200190919080519060200190919080519060200190919080519060200190919080519060200190919080519060200190919050508787868589888760008311151561008157600080fd5b600073ffffffffffffffffffffffffffffffffffffffff168273ffffffffffffffffffffffffffffffffffffffff16141515156100bd57600080fd5b600073ffffffffffffffffffffffffffffffffffffffff168173ffffffffffffffffffffffffffffffffffffffff16141515156100f957600080fd5b8260028190555081600160006101000a81548173ffffffffffffffffffffffffffffffffffffffff021916908373ffffffffffffffffffffffffffffffffffffffff160217905550806000806101000a81548173ffffffffffffffffffffffffffffffffffffffff021916908373ffffffffffffffffffffffffffffffffffffffff16021790555050505060008111151561019357600080fd5b8060048190555050600073ffffffffffffffffffffffffffffffffffffffff168173ffffffffffffffffffffffffffffffffffffffff16141515156101d757600080fd5b80600560006101000a81548173ffffffffffffffffffffffffffffffffffffffff021916908373ffffffffffffffffffffffffffffffffffffffff1602179055505033600660006101000a81548173ffffffffffffffffffffffffffffffffffffffff021916908373ffffffffffffffffffffffffffffffffffffffff16021790555042821015151561026957600080fd5b81811015151561027857600080fd5b8160098190555080600a819055505050868110151561029657600080fd5b80600b81905550505050505050505061111b806102b46000396000f30060606040526004361061011d576000357c0100000000000000000000000000000000000000000000000000000000900463ffffffff1680631515bc2b146101285780632c4e722e14610155578063355274ea1461017e5780634042b66f146101a757806342e94c90146101d05780634b6753bc1461021d5780634f93594514610246578063521eb2731461027357806366d97b21146102c85780638b58c64c146103155780638da5cb5b146103625780639c04e4e7146103b7578063a31f61fc146103e0578063b7a8807c14610417578063bb8b2b4714610440578063bf5839031461048d578063bff99c6c146104b6578063c3143fe51461050b578063ec8ac4d81461054d578063f2fde38b1461057b578063fc0c546a146105b4575b61012633610609565b005b341561013357600080fd5b61013b6106d7565b604051808215151515815260200191505060405180910390f35b341561016057600080fd5b6101686106e3565b6040518082815260200191505060405180910390f35b341561018957600080fd5b6101916106e9565b6040518082815260200191505060405180910390f35b34156101b257600080fd5b6101ba6106ef565b6040518082815260200191505060405180910390f35b34156101db57600080fd5b610207600480803573ffffffffffffffffffffffffffffffffffffffff169060200190919050506106f5565b6040518082815260200191505060405180910390f35b341561022857600080fd5b61023061070d565b6040518082815260200191505060405180910390f35b341561025157600080fd5b610259610713565b604051808215151515815260200191505060405180910390f35b341561027e57600080fd5b610286610722565b604051808273ffffffffffffffffffffffffffffffffffffffff1673ffffffffffffffffffffffffffffffffffffffff16815260200191505060405180910390f35b34156102d357600080fd5b6102ff600480803573ffffffffffffffffffffffffffffffffffffffff16906020019091905050610748565b6040518082815260200191505060405180910390f35b341561032057600080fd5b61034c600480803573ffffffffffffffffffffffffffffffffffffffff16906020019091905050610760565b6040518082815260200191505060405180910390f35b341561036d57600080fd5b6103756107a9565b604051808273ffffffffffffffffffffffffffffffffffffffff1673ffffffffffffffffffffffffffffffffffffffff16815260200191505060405180910390f35b34156103c257600080fd5b6103ca6107cf565b6040518082815260200191505060405180910390f35b34156103eb57600080fd5b610415600480803590602001908201803590602001919091929080359060200190919050506107d5565b005b341561042257600080fd5b61042a6108c4565b6040518082815260200191505060405180910390f35b341561044b57600080fd5b610477600480803573ffffffffffffffffffffffffffffffffffffffff169060200190919050506108ca565b6040518082815260200191505060405180910390f35b341561049857600080fd5b6104a0610913565b6040518082815260200191505060405180910390f35b34156104c157600080fd5b6104c9610a4f565b604051808273ffffffffffffffffffffffffffffffffffffffff1673ffffffffffffffffffffffffffffffffffffffff16815260200191505060405180910390f35b341561051657600080fd5b61054b600480803573ffffffffffffffffffffffffffffffffffffffff16906020019091908035906020019091905050610a75565b005b610579600480803573ffffffffffffffffffffffffffffffffffffffff16906020019091905050610609565b005b341561058657600080fd5b6105b2600480803573ffffffffffffffffffffffffffffffffffffffff16906020019091905050610b19565b005b34156105bf57600080fd5b6105c7610c71565b604051808273ffffffffffffffffffffffffffffffffffffffff1673ffffffffffffffffffffffffffffffffffffffff16815260200191505060405180910390f35b6000803491506106198383610c96565b61062282610cc3565b905061063982600354610d0790919063ffffffff16565b6003819055506106498382610d25565b8273ffffffffffffffffffffffffffffffffffffffff163373ffffffffffffffffffffffffffffffffffffffff167f623b3804fa71d67900d064613da8f94b9617215ee90799290593e1745087ad188484604051808381526020018281526020019250505060405180910390a36106c08383610d33565b6106c8610dd6565b6106d28383610e3a565b505050565b6000600a544211905090565b60025481565b60045481565b60035481565b60076020528060005260406000206000915090505481565b600a5481565b60006004546003541015905090565b600160009054906101000a900473ffffffffffffffffffffffffffffffffffffffff1681565b60086020528060005260406000206000915090505481565b6000600860008373ffffffffffffffffffffffffffffffffffffffff1673ffffffffffffffffffffffffffffffffffffffff168152602001908152602001600020549050919050565b600660009054906101000a900473ffffffffffffffffffffffffffffffffffffffff1681565b600b5481565b6000600660009054906101000a900473ffffffffffffffffffffffffffffffffffffffff1673ffffffffffffffffffffffffffffffffffffffff163373ffffffffffffffffffffffffffffffffffffffff1614151561083357600080fd5b600090505b838390508110156108be578160086000868685818110151561085657fe5b9050602002013573ffffffffffffffffffffffffffffffffffffffff1673ffffffffffffffffffffffffffffffffffffffff1673ffffffffffffffffffffffffffffffffffffffff168152602001908152602001600020819055508080600101915050610838565b50505050565b60095481565b6000600760008373ffffffffffffffffffffffffffffffffffffffff1673ffffffffffffffffffffffffffffffffffffffff168152602001908152602001600020549050919050565b60008060009054906101000a900473ffffffffffffffffffffffffffffffffffffffff1673ffffffffffffffffffffffffffffffffffffffff1663dd62ed3e600560009054906101000a900473ffffffffffffffffffffffffffffffffffffffff16306000604051602001526040518363ffffffff167c0100000000000000000000000000000000000000000000000000000000028152600401808373ffffffffffffffffffffffffffffffffffffffff1673ffffffffffffffffffffffffffffffffffffffff1681526020018273ffffffffffffffffffffffffffffffffffffffff1673ffffffffffffffffffffffffffffffffffffffff16815260200192505050602060405180830381600087803b1515610a2f57600080fd5b6102c65a03f11515610a4057600080fd5b50505060405180519050905090565b600560009054906101000a900473ffffffffffffffffffffffffffffffffffffffff1681565b600660009054906101000a900473ffffffffffffffffffffffffffffffffffffffff1673ffffffffffffffffffffffffffffffffffffffff163373ffffffffffffffffffffffffffffffffffffffff16141515610ad157600080fd5b80600860008473ffffffffffffffffffffffffffffffffffffffff1673ffffffffffffffffffffffffffffffffffffffff168152602001908152602001600020819055505050565b600660009054906101000a900473ffffffffffffffffffffffffffffffffffffffff1673ffffffffffffffffffffffffffffffffffffffff163373ffffffffffffffffffffffffffffffffffffffff16141515610b7557600080fd5b600073ffffffffffffffffffffffffffffffffffffffff168173ffffffffffffffffffffffffffffffffffffffff1614151515610bb157600080fd5b8073ffffffffffffffffffffffffffffffffffffffff16600660009054906101000a900473ffffffffffffffffffffffffffffffffffffffff1673ffffffffffffffffffffffffffffffffffffffff167f8be0079c531659141344cd1fd0a4f28419497f9722a3daafe3b4186f6b6457e060405160405180910390a380600660006101000a81548173ffffffffffffffffffffffffffffffffffffffff021916908373ffffffffffffffffffffffffffffffffffffffff16021790555050565b6000809054906101000a900473ffffffffffffffffffffffffffffffffffffffff1681565b6009544210158015610caa5750600a544211155b1515610cb557600080fd5b610cbf8282610e3e565b5050565b6000806002549050600b54421015610cec576064600860025402811515610ce657fe5b04810190505b610cff8184610eeb90919063ffffffff16565b915050919050565b6000808284019050838110151515610d1b57fe5b8091505092915050565b610d2f8282610f26565b5050565b610d3d8282611068565b610d8f81600760008573ffffffffffffffffffffffffffffffffffffffff1673ffffffffffffffffffffffffffffffffffffffff16815260200190815260200160002054610d0790919063ffffffff16565b600760008473ffffffffffffffffffffffffffffffffffffffff1673ffffffffffffffffffffffffffffffffffffffff168152602001908152602001600020819055505050565b600160009054906101000a900473ffffffffffffffffffffffffffffffffffffffff1673ffffffffffffffffffffffffffffffffffffffff166108fc349081150290604051600060405180830381858888f193505050501515610e3857600080fd5b565b5050565b610e48828261106c565b600860008373ffffffffffffffffffffffffffffffffffffffff1673ffffffffffffffffffffffffffffffffffffffff16815260200190815260200160002054610eda82600760008673ffffffffffffffffffffffffffffffffffffffff1673ffffffffffffffffffffffffffffffffffffffff16815260200190815260200160002054610d0790919063ffffffff16565b11151515610ee757600080fd5b5050565b6000806000841415610f005760009150610f1f565b8284029050828482811515610f1157fe5b04141515610f1b57fe5b8091505b5092915050565b6000809054906101000a900473ffffffffffffffffffffffffffffffffffffffff1673ffffffffffffffffffffffffffffffffffffffff166323b872dd600560009054906101000a900473ffffffffffffffffffffffffffffffffffffffff1684846000604051602001526040518463ffffffff167c0100000000000000000000000000000000000000000000000000000000028152600401808473ffffffffffffffffffffffffffffffffffffffff1673ffffffffffffffffffffffffffffffffffffffff1681526020018373ffffffffffffffffffffffffffffffffffffffff1673ffffffffffffffffffffffffffffffffffffffff1681526020018281526020019350505050602060405180830381600087803b151561104857600080fd5b6102c65a03f1151561105957600080fd5b50505060405180519050505050565b5050565b611076828261109f565b60045461108e82600354610d0790919063ffffffff16565b1115151561109b57600080fd5b5050565b600073ffffffffffffffffffffffffffffffffffffffff168273ffffffffffffffffffffffffffffffffffffffff16141515156110db57600080fd5b600081141515156110eb57600080fd5b50505600a165627a7a7230582029bbd95b6e9fb8d26fbc64fb7843de56fccce45b6d67c1f8f2e35a2a397d08ee0029",
  "source": "pragma solidity ^0.4.18;\n\nimport \"zeppelin-solidity/contracts/crowdsale/validation/IndividuallyCappedCrowdsale.sol\";\nimport \"zeppelin-solidity/contracts/crowdsale/validation/CappedCrowdsale.sol\";\nimport \"zeppelin-solidity/contracts/crowdsale/emission/AllowanceCrowdsale.sol\";\nimport \"zeppelin-solidity/contracts/crowdsale/validation/TimedCrowdsale.sol\";\n\n/**\n * @title CarboneumCrowdsale\n * @dev This is Carboneum fully fledged crowdsale.\n * CappedCrowdsale - sets a max boundary for raised funds.\n * AllowanceCrowdsale - token held by a wallet.\n * IndividuallyCappedCrowdsale - Crowdsale with per-user caps.\n * TimedCrowdsale - Crowdsale accepting contributions only within a time frame.\n */\ncontract CarboneumCrowdsale is CappedCrowdsale, AllowanceCrowdsale, IndividuallyCappedCrowdsale, TimedCrowdsale {\n\n    uint256 public pre_sale_end;\n\n    function CarboneumCrowdsale(uint256 _openingTime, uint256 _closingTime, uint256 _rate,\n        address _token_wallet, address _fund_wallet, uint256 _cap, ERC20 _token, uint256 _pre_sale_end) public\n    AllowanceCrowdsale(_token_wallet)\n    Crowdsale(_rate, _fund_wallet, _token)\n    CappedCrowdsale(_cap)\n    TimedCrowdsale(_openingTime, _closingTime)\n    {\n        require(_pre_sale_end < _closingTime);\n        pre_sale_end = _pre_sale_end;\n    }\n\n    /**\n     * @dev Add bonus to pre-sale period.\n     * @param _weiAmount Value in wei to be converted into tokens\n     * @return Number of tokens that can be purchased with the specified _weiAmount\n     */\n    function _getTokenAmount(uint256 _weiAmount) internal view returns (uint256) {\n        var new_rate = rate;\n        if (now < pre_sale_end) {\n            // Bonus 8%\n            new_rate += rate * 8 / 100;\n        }\n        return _weiAmount.mul(new_rate);\n    }\n}\n",
  "sourcePath": "/home/robot/opensource/carboneum/contracts/contracts/CarboneumCrowdsale.sol",
  "compiler": {
    "name": "solc",
    "version": "0.4.19+commit.c4cbbb05.Emscripten.clang"
  },
  "schemaVersion": "2.0.0",
  "updatedAt": "2018-03-08T18:49:28.470Z"
}